{
    "contractName": "Transactions",
    "abi": [
        {
            "anonymous": false,
            "inputs": [
                {
                    "indexed": false,
                    "internalType": "address",
                    "name": "from",
                    "type": "address"
                },
                {
                    "indexed": false,
                    "internalType": "address",
                    "name": "receiver",
                    "type": "address"
                },
                {
                    "indexed": false,
                    "internalType": "uint256",
                    "name": "amount",
                    "type": "uint256"
                },
                {
                    "indexed": false,
                    "internalType": "string",
                    "name": "message",
                    "type": "string"
                },
                {
                    "indexed": false,
                    "internalType": "uint256",
                    "name": "timestamp",
                    "type": "uint256"
                },
                {
                    "indexed": false,
                    "internalType": "string",
                    "name": "keyword",
                    "type": "string"
                }
            ],
            "name": "Transfer",
            "type": "event"
        },
        {
            "inputs": [
                {
                    "internalType": "address payable",
                    "name": "receiver",
                    "type": "address"
                },
                {
                    "internalType": "uint256",
                    "name": "amount",
                    "type": "uint256"
                },
                {
                    "internalType": "string",
                    "name": "message",
                    "type": "string"
                },
                {
                    "internalType": "string",
                    "name": "keyword",
                    "type": "string"
                }
            ],
            "name": "addToBlockchain",
            "outputs": [],
            "stateMutability": "nonpayable",
            "type": "function"
        },
        {
            "inputs": [],
            "name": "getAllTransactions",
            "outputs": [
                {
                    "components": [
                        {
                            "internalType": "address",
                            "name": "sender",
                            "type": "address"
                        },
                        {
                            "internalType": "address",
                            "name": "receiver",
                            "type": "address"
                        },
                        {
                            "internalType": "uint256",
                            "name": "amount",
                            "type": "uint256"
                        },
                        {
                            "internalType": "string",
                            "name": "message",
                            "type": "string"
                        },
                        {
                            "internalType": "uint256",
                            "name": "timestamp",
                            "type": "uint256"
                        },
                        {
                            "internalType": "string",
                            "name": "keyword",
                            "type": "string"
                        }
                    ],
                    "internalType": "struct Transactions.TransferStruct[]",
                    "name": "",
                    "type": "tuple[]"
                }
            ],
            "stateMutability": "view",
            "type": "function"
        },
        {
            "inputs": [],
            "name": "getTransactionCount",
            "outputs": [
                {
                    "internalType": "uint256",
                    "name": "",
                    "type": "uint256"
                }
            ],
            "stateMutability": "view",
            "type": "function"
        }
    ],
    "bytecode": "608060405234801561001057600080fd5b506107a9806100206000396000f3fe608060405234801561001057600080fd5b50600436106100415760003560e01c806327506f53146100465780632e7700f014610064578063cc2d7ead14610075575b600080fd5b61004e61008a565b60405161005b91906104cb565b60405180910390f35b60005460405190815260200161005b565b61008861008336600461062f565b610245565b005b60606001805480602002602001604051908101604052809291908181526020016000905b8282101561023c5760008481526020908190206040805160c0810182526006860290920180546001600160a01b0390811684526001820154169383019390935260028301549082015260038201805491929160608401919061010f906106bb565b80601f016020809104026020016040519081016040528092919081815260200182805461013b906106bb565b80156101885780601f1061015d57610100808354040283529160200191610188565b820191906000526020600020905b81548152906001019060200180831161016b57829003601f168201915b50505050508152602001600482015481526020016005820180546101ab906106bb565b80601f01602080910402602001604051908101604052809291908181526020018280546101d7906106bb565b80156102245780601f106101f957610100808354040283529160200191610224565b820191906000526020600020905b81548152906001019060200180831161020757829003601f168201915b505050505081525050815260200190600101906100ae565b50505050905090565b600160008082825461025791906106f5565b90915550506040805160c0810182523381526001600160a01b0386811660208084019182529383018781526060840187815242608086015260a08501879052600180548082018255600091909152855160069091027fb10e2d527612073b26eecdfd717e6a320cf44b4afac2b0732d9fcbe2b7fa0cf6810180549287166001600160a01b031993841617815594517fb10e2d527612073b26eecdfd717e6a320cf44b4afac2b0732d9fcbe2b7fa0cf7820180549190971692169190911790945590517fb10e2d527612073b26eecdfd717e6a320cf44b4afac2b0732d9fcbe2b7fa0cf884015551805193949193610375937fb10e2d527612073b26eecdfd717e6a320cf44b4afac2b0732d9fcbe2b7fa0cf9019291909101906103e5565b506080820151600482015560a0820151805161039b9160058401916020909101906103e5565b5050507f416cfa4330a4565f45c2fd2dd4826a83a37443aba2ce6f79477c7355afac35fa3385858542866040516103d79695949392919061071b565b60405180910390a150505050565b8280546103f1906106bb565b90600052602060002090601f0160209004810192826104135760008555610459565b82601f1061042c57805160ff1916838001178555610459565b82800160010185558215610459579182015b8281111561045957825182559160200191906001019061043e565b50610465929150610469565b5090565b5b80821115610465576000815560010161046a565b6000815180845260005b818110156104a457602081850181015186830182015201610488565b818111156104b6576000602083870101525b50601f01601f19169290920160200192915050565b60006020808301818452808551808352604092508286019150828160051b87010184880160005b8381101561057e57888303603f19018552815180516001600160a01b039081168552888201511688850152868101518785015260608082015160c082870181905291906105418388018261047e565b92505050608080830151818701525060a0808301519250858203818701525061056a818361047e565b9689019694505050908601906001016104f2565b509098975050505050505050565b634e487b7160e01b600052604160045260246000fd5b600082601f8301126105b357600080fd5b813567ffffffffffffffff808211156105ce576105ce61058c565b604051601f8301601f19908116603f011681019082821181831017156105f6576105f661058c565b8160405283815286602085880101111561060f57600080fd5b836020870160208301376000602085830101528094505050505092915050565b6000806000806080858703121561064557600080fd5b84356001600160a01b038116811461065c57600080fd5b935060208501359250604085013567ffffffffffffffff8082111561068057600080fd5b61068c888389016105a2565b935060608701359150808211156106a257600080fd5b506106af878288016105a2565b91505092959194509250565b600181811c908216806106cf57607f821691505b6020821081036106ef57634e487b7160e01b600052602260045260246000fd5b50919050565b6000821982111561071657634e487b7160e01b600052601160045260246000fd5b500190565b6001600160a01b038781168252861660208201526040810185905260c06060820181905260009061074e9083018661047e565b84608084015282810360a0840152610766818561047e565b999850505050505050505056fea2646970667358221220304f5063d14cf86bac074a1c86c4a332879a65d2110a52a5d00a0d3eaaf091ff64736f6c634300080d0033",
    "sourcePath": "/Users/droidme/Development/krypt/smart_contract/contracts/Transactions.sol",
    "compiler": {
        "name": "solc",
        "version": "0.8.13+commit.abaa5c0e"
    },
    "functionHashes": {
        "addToBlockchain(address,uint256,string,string)": "cc2d7ead",
        "getAllTransactions()": "27506f53",
        "getTransactionCount()": "2e7700f0"
    },
    "gasEstimates": {
        "creation": {
            "codeDepositCost": "392200",
            "executionCost": "430",
            "totalCost": "392630"
        },
        "external": {
            "addToBlockchain(address,uint256,string,string)": "infinite",
            "getAllTransactions()": "infinite",
            "getTransactionCount()": "2280"
        }
    }
}